:100000000C9490190C94C1190C94C1190C94C11939
:100010000C94C1190C94C1190C94C1190C94C119F8
:100020000C94C1190C94C1190C94C1190C94C119E8
:100030000C94C1190C94C1190C94C1190C94C119D8
:100040000C94C1190C9454560C94C1190C94C119F8
:100050000C94C1190C94C1190C94C1190C9412552B
:100060000C94C1190C9486550C945C550C94C119D0
:100070000C94C1190C94C1190C94C1190C94C11998
:100080000C9426560C94C1190C94C1190C94C119E6
:100090000C94C1190C94C1190C94C1190C9482567A
:1000A0000C94C1190C94C1190C94F8550C94C119F5
:1000B0000C94C1190C94C1190C94C1190C94CA5513
:1000C0000C94C1190C94C1190C94C1190C94C11948
:1000D0000C94C1190C94C1190C94C1190C94C11938
:1000E0000C94C1190C94CB2F0C94F91A0C949B2EE0
:1000F0000C941E2F0C94DA2B0C94F7270C94274A9F
:100100000C946E4B0C9475200C94EB270C94403798
:100110000C94162F0C942C300C9403280C948243CE
:100120000C94ED2B0C942A1B0C942F3E0C94DD3276
:100130000C9490300C94084A0C94A71D0C94132234
:100140000C944B350C941E4F0C94061E0C94E741F6
:100150000C940A1B0C9435480C94BC340C94531E1C
:100160000C941A2F0C945D250C94F1340C94862A6F
:100170000C947A370C94FB500C9423230C94DA27BC
:100180000C94ED2E0C9416300C94A21A0C94F42BB3
:100190000C94011B0C941E2E0C94CE4D0C94EC2F41
:1001A0000C94762D0C94EF1A0C9481300C944C2EF8
:1001B0000C941A350C94F9340C948E260C948A40C5
:1001C0000C94F51A0C947C3B0C9404350C94062783
:1001D0000C949F510C944A5B0C9489300C943544D8
:1001E0000C94BE1D0C9423270C947A3C0C94261B73
:1001F0000C94142F0C94FB370C94C8340C94212CC1
:100200000C948D470C94B6280C94DB270C94C42BCB
:100210000C942A4D0C94CF2E0C94181B0C940E5554
:100220000C948E350C946A300C946D3B0C94301BFE
:100230000C94A1270C9468270C946E440C94C25F14
:100240000C94A31A0C9456350C9485530C94855237
:100250000C94A5300C94BE4E0C94341B0C94AC3012
:100260000C94F23D0C949E300C94244F0C940E1B75
:100270000C942F1B0C94BE200C94182F0C946B1D07
:100280000C9405210C943F510C94D2410C941538D8
:100290000C94894C0C9461350C94122F0C94794178
:1002A0000C9406530C94FD1A0C94933A0C94981DDC
:1002B0000C94C44B0C944A3E0C941C1B0C94DE34DE
:1002C0000C942F260C9454420C94041B0C940D3E59
:1002D0000C94D3340C9415500C940A280C94543C70
:1002E0000C94762F0C9497300C941C2F0C94221B9A
:1002F0000C943F440C94FB410C94141B0C94CB2B9A
:100300000C94B3300C942A350C94FB4E0C94E446B8
:100310000C94D03D0C94CC1D0C94DE4D0C94C33445
:100320000C949D520C94972F0C94E9340C940F3537
:100330000C94DF430C9435350C944C430C94202FD3
:100340000C9409540C9440350C94982E0000010133
:10035000070000010001011E0000020017141F0425
:10036000D53C0017291F04D5B200172E1F04D33720
:1003700001172A1F04D5B001172E1F04D33502041C
:10038000141F04D53F02162E1F04D3BE02162E1FC3
:1003900005D33D0314191E05D37C03142E1E05D36B
:1003A000EF0304141F04EAF9031A152405D03E04D0
:1003B000040500FEFC410417291F04D5B704172EBD
:1003C0001E04D33C0504291E17D55105172E1E0403
:1003D000D3D605162E1E05D35506172A1E04D5CED4
:1003E00006172E1E04D35307172E1E04D3D8071743
:1003F0002B1E04D35408172E1E04D3D908172E1E03
:1004000004D35E0904190601DE6B0904060601DE49
:100410006E0916171F04EAAE0914191E05E8ED0946
:1004200016171F05EA2D0A172C1F04D3AC0A172E26
:100430001F04D3310B172C1F04D3B00B172C1F0430
:10044000D52F0C16191F04E8740C172C1F04D5F3B4
:100450000C162E1F04D3720D162C1F04D3EB0D1790
:100460002E1F04D3700E172A1F04D5E90E04141F83
:1004700017EAF30E172C1F04D5720F172C1F04D385
:10048000F10F162C1F04D56A10172B1F04D3E6108A
:1004900017171F04E8291117191F04E87111172CE9
:1004A0001F04D3F011172C1F04D36F1216171F044B
:1004B000E8AF12172C1F04D52E13162C1F04D5A736
:1004C0001317171F04EAEA13172C1F04D569141712
:1004D0002C1F04D5E814172A1F04D56115172C1FEB
:1004E00004D5E015172E1F04D36516162A1F05D54F
:1004F000D91617291F04D54F17162A1F04D5C3175D
:1005000017161F04D3031814041E05FD0D18162B0F
:100510001F05D38418172C1F04D30319172C1F048D
:10052000D5821916191F04E8C719172C1F04D546C0
:100530001A162E1F04D3C51A162C1F04D33E1B17E0
:100540002E1F04D3C31B172A1F04D53C1C04141FE1
:1005500017EA461C172C1F04D5C51C172C1F04D3E3
:10056000441D162C1F04D5BD1D172B1F04D3391E87
:1005700017171F04E87C1E17191F04E8C41E172C48
:100580001F04D3431F172C1F04D3C21F16171F04A9
:10059000E80220172C1F04D58120162C1F04D5FA41
:1005A0002017171F04EA3D21172C1F04D5BC211763
:1005B0002C1F04D53B22172A1F04D5B422172C1F49
:1005C00004D53323172E1F04D3B82316161F04D3C4
:1005D000F52304291F04D50A2416161F05D3472422
:1005E00004050601F20000C00007C0001FC0007F24
:1005F0008000FF0001FE0003FC0007F8000FF00080
:100600001FE0003FC0007F8000FF0001FE0003FCF0
:100610000007F8000FF0001FE0003F80003E0000E0
:1006200030C00007C0001FC0007F8000FF0001FE37
:100630000003FC0007F8000FF0001FE0003FC000BF
:100640007F8000FF0001FE0003FC0007F8000FF0B0
:10065000001FE0003F80003E000030000018000056
:10066000F80003F8000FF0001FE0003FC0007F809B
:1006700000FF0001FE0003FC0007F8000FF0001F60
:10068000E0003FC0007F8000FF0001FE0003FC008F
:1006900007F00007C000061FFFF07FFFF17FFFC7D4
:1006A0007FFF0F00001E00003C0000780000F000FB
:1006B00001E00003C0000780000F00001E00003CA6
:1006C0000000780000F00001E00003C00007800097
:1006D0000E000018000020000000000100000600CD
:1006E000001C0000780000F00001E00003C00007DB
:1006F00080000F00001E00003C0000780000F000A9
:1007000001E00003C0000780000F00001E00003C55
:100710003FFFB8FFFFA3FFFF83FFFE0000000400C0
:10072000001C0000780000F00001E00003C000079A
:1007300080000F00001E00003C0000780000F00068
:1007400001E00003C0000780000F00001E00003C15
:10075000000038FFFF33FFFF37FFFE37FFF8700060
:1007600000F00001E00003C0000780000F00001E41
:1007700000003C0000780000F00001E00003C00031
:100780000780000F00001E00003C0000700000E029
:1007900000008000001FFFF07FFFF07FFFD07FFF91
:1007A000700001E00003C0000780000F00001E0081
:1007B000003C0000780000F00001E00003C00007EA
:1007C00080000F00001E00003C0000780000F000D8
:1007D00000E3FFFCCFFFFCDFFFF9DFFFE7C0001FF6
:1007E000C0007F8000FF0001FE0003FC0007F8004E
:1007F0000FF0001FE0003FC0007F8000FF0001FEFF
:100800000003FC0007F8000FF0001FE0003FBFFFEF
:10081000BAFFFFA3FFFF83FFFE004EFFFFFFFFFFB6
:10082000FFFFFFEC1FFFF8FFFFF5FFFFBBFFFCF032
:100830000003C0000F00003C0000F00003C0000FE8
:1008400000003C0000F00003C0000F00003C00006E
:10085000F00003C0000F00003C0000E000030000B7
:10086000080000200000C0000380000F00003C00D2
:1008700000F00003C0000F00003C0000F00003C0C7
:10088000000F00003C0000F00003C0000F00003C1F
:100890000000F00003C0000EFFFF17FFFE3FFFFC4B
:1008A0007FFFE07FFFE3FFFFC7FFFE8FFFF7000042
:1008B0003C0000F00003C0000F00003C0000F0000E
:1008C00003C0000F00003C0000F00003C0000F0058
:1008D000003C0000F00003C0000F00001C000030CE
:1008E000000040000100000C0000700003C0000F79
:1008F00000003C0000F00003C0000F00003C0000BE
:10090000F00003C0000F00003C0000F00003C00036
:100910000F00003C0000F3FFFDDFFFFAFFFFF1FFD7
:10092000FF807FFFE7FFFF7FFFE3FFFC0000000089
:1009300000000000000000000000000000000000B7
:1009400000000000000000000000000000000000A7
:1009500000000000000003FFFE7FFFF7FFFF3FFFE6
:10096000E07FFFE7FFFF7FFFE3FFFC0000000000E8
:100970000000000000000000000000000000000077
:100980000000000000000000000000000000000067
:10099000000000000003FFFE7FFFF7FFFF3FFFE0C6
:1009A0000000000000000000000000000000000047
:1009B0000000000000000000000000000000000037
:1009C000000000000000000000003FFFC7FFFE7FA6
:1009D000FFF7FFFECEFFFFFFFFFFFFFFFFECC000B2
:1009E00000F800007F00003FC0001FF80007FF0074
:1009F00003FFE001FFFC00FF7F807F8FF03FC3FE1D
:100A00001FE07FCFF80FFFFC01FFFE003FFF000754
:100A1000FF8000FFC0001FE00003F000007800002E
:100A20000000006FFF6000000600001C000078005E
:100A300000F00001E00003C0000780000F00001E6E
:100A400000003C0000780000F00001E00003C0005E
:100A50000780000F00001E00003C0000380000303E
:100A60000000180000380000780000F00001E000ED
:100A700003C0000780000F00001E00003C0000784B
:100A80000000F00001E00003C0000780000F00003C
:100A90001E00003C0000700000C000001FFFF07F3F
:100AA000FFF17FFFD77FFF7F0001FE0003FC0007FF
:100AB000F8000FF0001FE0003FC0007F8000FF0043
:100AC00001FE0003FC0007F8000FF0001FE0003FEC
:100AD000C0007F8000FE0000F80000E00000C000C1
:100AE00001C00007C0001FC0007F8000FF0001FEA2
:100AF0000003FC0007F8000FF0001FE0003FC000FB
:100B00007F8000FF0001FE0003FC0007F8000FF0EB
:100B1000001FE0003FBFFFBAFFFFA3FFFF83FFFE00
:100B20000037FFFFFFFFFFFFFFFF73037FFFFFFFA4
:100B3000FFFFFFFFF7301FFFF07FFFF07FFFD07F49
:100B4000FF700001E00003C0000780000F00001EDE
:100B500000003C0000780000F00001E00003C0004D
:100B60000780000F00001E00003C0000780000F02D
:100B70000000E3FFFCCFFFFCDFFFF8DFFFE1C00078
:100B800003C0000780000F00001E00003C0000783A
:100B90000000F00001E00003C0000780000F00002B
:100BA0001E00003C0000780000F00001E00003BFE0
:100BB000FF82FFFF83FFFF83FFFE007FFFE3FFFF56
:100BC000C7FFFE8FFFF700003C0000F00003C000ED
:100BD0000F00003C0000F00003C0000F00003C00CC
:100BE00000F00003C0000F00003C0000F00003C054
:100BF000000F00001DFFFF37FFFE5FFFF97FFFCCF6
:100C00000000700003C0000F00003C0000F0000373
:100C1000C0000F00003C0000F00003C0000F000007
:100C20003C0000F00003C0000F00003C0000F3FF98
:100C3000FDDFFFFAFFFFF1FFFF80400005C0001F4E
:100C4000C0007F8000FF0001FE0003FC0007F800E9
:100C50000FF0001FE0003FC0007F8000FF0001FE9A
:100C60000003FC0007F8000FF0001FE0003F8000C9
:100C70003EFFFF3BFFFF27FFFE47FFF98000070015
:100C8000001E00003C0000780000F00001E00003BE
:100C9000C0000780000F00001E00003C000078002C
:100CA00000F00001E00003C0000780000700000E14
:100CB0000000081FFFF07FFFF17FFFC77FFF0F00DD
:100CC000001E00003C0000780000F00001E000037E
:100CD000C0000780000F00001E00003C00007800EC
:100CE00000F00001E00003C0000780000E00001BC0
:100CF000FFFC2FFFFC1FFFF91FFFE600001C000098
:100D0000780000F00001E00003C0000780000F0041
:100D1000001E00003C0000780000F00001E000032D
:100D2000C0000780000F00001E00003C3FFFB8FF1E
:100D3000FFA3FFFF83FFFE001FFFF07FFFF17FFF98
:100D4000C77FFF0F00001E00003C0000780000F08D
:100D50000001E00003C0000780000F00001E00003B
:100D60003C0000780000F00001E00003C0000780B4
:100D7000000E00001BFFFC2FFFFC5FFFF9DFFFE709
:100D8000C0001FC0007F8000FF0001FE0003FC00C8
:100D900007F8000FF0001FE0003FC0007F8000FF59
:100DA0000001FE0003FC0007F8000FF0001FE00048
:100DB0003FBFFFBAFFFFA3FFFF83FFFE001FFFF04F
:100DC0007FFFF17FFFD77FFF7F0001FE0003FC0064
:100DD00007F8000FF0001FE0003FC0007F8000FF19
:100DE0000001FE0003FC0007F8000FF0001FE00008
:100DF0003FC0007F8000FE0000F80000C00000003F
:100E0000000300000E00003C0000780000F000012C
:100E1000E00003C0000780000F00001E00003C003F
:100E200000780000F00001E00003C0000780000F20
:100E300000001E00001C0000181FFFF07FFFF17F64
:100E4000FFD77FFF7F0001FE0003FC0007F8000FC3
:100E5000F0001FE0003FC0007F8000FF0001FE00A7
:100E600003FC0007F8000FF0001FE0003FC0007F08
:100E70008000FE0000FBFFFCEFFFFCDFFFF9DFFF5F
:100E8000E7C0001FC0007F8000FF0001FE0003FCE0
:100E90000007F8000FF0001FE0003FC0007F800057
:100EA000FF0001FE0003FC0007F8000FF0001FE048
:100EB000003FBFFFBAFFFFA3FFFF83FFFE001FFF3E
:100EC000F07FFFF17FFFD77FFF7F0001FE0003FC73
:100ED0000007F8000FF0001FE0003FC0007F800017
:100EE000FF0001FE0003FC0007F8000FF0001FE008
:100EF000003FC0007F8000FE0000FBFFFCEFFFFC16
:100F00009FFFF91FFFE600001C0000780000F000C2
:100F100001E00003C0000780000F00001E00003C3D
:100F20000000780000F00001E00003C0000780002E
:100F30000F00001E00003C3FFFB8FFFFA3FFFF8330
:100F4000FFFE006FFFF6000000000000006FFF6072
:100F50006FFFF680000300000E00003C0000F00070
:100F600003C0000F00003C0000F00003C0000F00B1
:100F7000003C0000F00003C0000F00003C0000F047
:100F80000003C0000F00003BFFFC5FFFF8FFFFF114
:100F9000FFFF803FFFE7FFFF7FFFF3FFFE00000042
:100FA0000000000000000000000000000000000041
:100FB0000000000000000000000000000000000031
:100FC0000000000000000003FFFC7FFFE7FFFF7F41
:100FD000FFE00000040000300001C0000F00003CF2
:100FE0000000F00003C0000F00003C0000F0000310
:100FF000C0000F00003C0000F00003C0000F000024
:101000003C0000F00003CFFFF77FFFEBFFFFC7FFBF
:10101000FE001FFFF07FFFF07FFFD07FFF70000119
:10102000E00003C0000780000F00001E00003C002D
:1010300000780000F00001E00003C0000780000F0E
:1010400000001E00003C0000780000F00000E3FFFC
:10105000FCCFFFFCDFFFF8DFFFE1C00003C00007AB
:1010600080000F00001E00003C0000780000F0002F
:1010700001E00003C0000780000F00001E00003CDC
:101080000000780000F00001C000038000020000B2
:10109000001FFFF07FFFF17FFFD77FFF7F0001FE82
:1010A0000003FC0007F8000FF0001FE0003FC00045
:1010B0007F8000FF0001FE0003FC0007F8000FF036
:1010C000001FE0003FC0007F8000FE0000FBFFFC2F
:1010D000EFFFFCDFFFF8DFFFE1C00003C000078087
:1010E000000F00001E00003C0000780000F000012E
:1010F000E00003C0000780000F00001E00003C005D
:1011000000780000F00001E00003BFFF82FFFF83D2
:10111000FFFF83FFFE001FFFF07FFFF17FFFD77F00
:10112000FF7F0001FE0003FC0007F8000FF0001F26
:10113000E0003FC0007F8000FF0001FE0003FC00D4
:1011400007F8000FF0001FE0003FC0007F8000FEA6
:101150000000FBFFFCEFFFFCDFFFF9DFFFE7C00053
:101160001FC0007F8000FF0001FE0003FC0007F8A5
:10117000000FF0001FE0003FC0007F8000FF000173
:10118000FE0003FC0007F8000FF0001FC0001F80E6
:10119000003A000020400001C00003C000078000AA
:1011A0000F00001E00003C0000780000F00001E08D
:1011B0000003C0000780000F00001E00003C00007C
:1011C000780000F00001E00003800006FFFF0BFF45
:1011D000FF17FFFE77FFF9F00007F0001FE0003F68
:1011E000C0007F8000FF0001FE0003FC0007F80044
:1011F0000FF0001FE0003FC0007F8000FF0001FEF5
:101200000003FC0007F8000FEFFFEEBFFFE8FFFF51
:10121000E0FFFF801FFFF8FFFFEBFFFFB7FFFEE0DF
:101220000003C0000F00003C0000F00003C0000FEE
:1012300000003C0000F00003C0000F00003C000074
:10124000F00003C0000F00003C0000F00003BFFFEF
:10125000C5FFFF8FFFFF1FFFF800000400001C0008
:1012600000780000F00001E00003C0000780000FDC
:1012700000001E00003C0000780000F00001E000CB
:1012800003C0000780000F00001E00003C00003873
:10129000FFFF33FFFF37FFFE77FFF9F00007F00095
:1012A0001FE0003FC0007F8000FF0001FE0003FC44
:1012B0000007F8000FF0001FE0003FC0007F800033
:1012C000FF0001FE0003FC0007F8000FEFFFEEBF78
:1012D000FFE8FFFFE0FFFF801FFFF8FFFFF5FFFFC4
:1012E000BBFFFCF00003C0000F00003C0000F0005A
:1012F00003C0000F00003C0000F00003C0000F001E
:10130000003C0000F00003C0000F00003C0000E0C3
:1013100000037FFFEBFFFFAFFFFEDFFFFB80000F4F
:1013200000003C0000F00003C0000F00003C000083
:10133000F00003C0000F00003C0000F00003C000FC
:101340000F00003C0000F00003C0000EFFFF17FF7D
:10135000FE3FFFFC7FFFE01FFFF8FFFFF5FFFFBB35
:10136000FFFCF00003C0000F00003C0000F0000391
:10137000C0000F00003C0000F00003C0000F0000A0
:101380003C0000F00003C0000F00003C0000E00043
:10139000037FFFEBFFFFAFFFFEDFFFFB80000F00CF
:1013A000003C0000F00003C0000F00003C0000F013
:1013B0000003C0000F00003C0000F00003C0000F5D
:1013C00000003C0000F0000380000E000010000050
:1013D0001FFFF07FFFF17FFFC77FFF0F00001E00A0
:1013E000003C0000780000F00001E00003C00007AE
:1013F00080000F00001E00003C0000780000F0009C
:1014000001E00003C0000780000E0000180000206B
:101410000000400001C00007C0001FC0007F800026
:10142000FF0001FE0003FC0007F8000FF0001FE0C2
:10143000003FC0007F8000FF0001FE0003FC0007AA
:10144000F8000FF0001FE0003FBFFFBAFFFFA3FF4F
:10145000FF83FFFE00400001C00003C000078000C2
:101460000F00001E00003C0000780000F00001E0CA
:101470000003C0000780000F00001E00003C0000B9
:10148000780000F00001E00003800006FFFF0BFF82
:10149000FF17FFFE77FFF9F00007F0001FE0003FA5
:1014A000C0007F8000FF0001FE0003FC0007F80081
:1014B0000FF0001FE0003FC0007F8000FF0001FE32
:1014C0000003FC0007F00007E0000E80000837FF73
:1014D000FFFFFFFFFFFFFF7300000400001C000080
:1014E000780000F00001E00003C0000780000F005A
:1014F000001E00003C0000780000F00001E0000346
:10150000C0000780000F00001E00003C00003800F3
:1015100000300000300000700001F00007F0001FF4
:10152000E0003FC0007F8000FF0001FE0003FC00E0
:1015300007F8000FF0001FE0003FC0007F8000FFB1
:101540000001FE0003FC0007F8000FEFFFEEBFFFF5
:10155000E8FFFFE0FFFF801FFFF07FFFF17FFFC785
:101560007FFF0F00001E00003C0000780000F0002C
:1015700001E00003C0000780000F00001E00003CD7
:101580000000780000F00001E00003C000078000C8
:101590000E00001BFFFC2FFFFC5FFFF9DFFFE7C021
:1015A000001FC0007F8000FF0001FE0003FC000759
:1015B000F8000FF0001FE0003FC0007F8000FF0038
:1015C00001FE0003FC0007F8000FF0001FC0001F21
:1015D00080003A00002040000380000F00003C0023
:1015E00000F00003C0000F00003C0000F00003C04A
:1015F000000F00003C0000F00003C0000F00003CA2
:101600000000F00003C0000E000030000080000267
:1016100000000C0000380000F00003C0000F0000C4
:101620003C0000F00003C0000F00003C0000F00090
:1016300003C0000F00003C0000F00003C0000F00DA
:10164000003C0000EFFFF17FFFE3FFFFC7FFFE1F3D
:10165000FFF07FFFF17FFFD77FFF7F0001FE0003D8
:10166000FC0007F8000FF0001FE0003FC0007F8083
:1016700000FF0001FE0003FC0007F8000FF0001F50
:10168000E0003FC0007F8000FE0000F80000C000C6
:1016900000600003E0000FE0003FC0007F8000FF1B
:1016A0000001FE0003FC0007F8000FF0001FE0003F
:1016B0003FC0007F8000FF0001FE0003FC0007F830
:1016C000000FF0001FC0001F0000181FFFE07FFF89
:1016D000E2FFFFCEFFFF3E0000FE0003FC0007F824
:1016E000000FF0001FE0003FC0007F8000FF0001FE
:1016F000FE0003FC0007F8000FF0001FE0003FC0F1
:10170000007F8000FE0000FC0001D00001001FFFF0
:10171000E07FFFE2FFFFCEFFFF3E0000FE0003FC84
:101720000007F8000FF0001FE0003FC0007F8000BE
:10173000FF0001FE0003FC0007F8000FF0001FE0AF
:10174000003FC0007F8000FF0001FDFFFDD7FFFDCF
:101750001FFFFC1FFFF01FFFF07FFFF17FFFD77F10
:10176000FF7F0001FE0003FC0007F8000FF0001FE0
:10177000E0003FC0007F8000FF0001FE0003FC008E
:1017800007F8000FF0001FE0003FC0007F8000FE60
:101790000000FBFFFCEFFFFCDFFFF8DFFFE1C00014
:1017A00003C0000780000F00001E00003C0000780E
:1017B0000000F00001E00003C0000780000F0000FF
:1017C0001E00003C0000780000F00001C000038013
:1017D00000020000001FFFF07FFFF17FFFD77FFFB7
:1017E0007F0001FE0003FC0007F8000FF0001FE07F
:1017F000003FC0007F8000FF0001FE0003FC0007E7
:10180000F8000FF0001FE0003FC0007F8000FE00E6
:1018100000FBFFFCEFFFFC9FFFF91FFFE600001C31
:101820000000780000F00001E00003C00007800025
:101830000F00001E00003C0000780000F00001E0F6
:101840000003C0000780000F00001E00001C000005
:10185000380000201FFFF8FFFFEBFFFFB7FFFEE09F
:101860000003C0000F00003C0000F00003C0000FA8
:1018700000003C0000F00003C0000F00003C00002E
:10188000F00003C0000F00003C0000E000038000F7
:1018900004000000400001C00003C0000780000FEA
:1018A00000001E00003C0000780000F00001E00095
:1018B00003C0000780000F00001E00003C000078FD
:1018C0000000F00001E00003800006FFFF0BFFFFB7
:1018D00007FFFE47FFF980000700001E00003C00E4
:1018E00000780000F00001E00003C0000780000F56
:1018F00000001E00003C0000780000F00001E00045
:1019000003C0000780000F0FFFEE3FFFE8FFFFE07E
:10191000FFFF8040000380000F00003C0000F0004B
:1019200003C0000F00003C0000F00003C0000F00E7
:10193000003C0000F00003C0000F00003C0000F07D
:101940000003C0000E000037FFFEBFFFFAFFFFEDEF
:10195000FFFFB80000F00003C0000F00003C0000D3
:10196000F00003C0000F00003C0000F00003C000C6
:101970000F00003C0000F00003C0000F00003C001E
:1019800000EFFFF17FFFE3FFFFC7FFFE8000038052
:10199000000F80003F8000FF0001FE0003FC0007F5
:1019A000F8000FF0001FE0003FC0007F8000FF0044
:1019B00001FE0003FC0007F8000FF0001FE0003FED
:1019C000C0007F7FFF75FFFF47FFFF07FFFC004060
:1019D0000005C0001FC0007F8000FF0001FE000363
:1019E000FC0007F8000FF0001FE0003FC0007F8000
:1019F00000FF0001FE0003FC0007F8000FF0001FCD
:101A0000E0003F80003E0000380000300000700021
:101A100001F00007F0001FE0003FC0007F8000FFE2
:101A20000001FE0003FC0007F8000FF0001FE000BB
:101A30003FC0007F8000FF0001FE0003FC0007F8AC
:101A4000000FEFFFEEBFFFE8FFFFE0FFFF80400069
:101A500005C0001FC0007F8000FF0001FE0003FCE6
:101A60000007F8000FF0001FE0003FC0007F80007B
:101A7000FF0001FE0003FC0007F8000FF0001FE06C
:101A8000003F80003EFFFF3BFFFF37FFFE77FFF97F
:101A9000F00007F0001FE0003FC0007F8000FF0063
:101AA00001FE0003FC0007F8000FF0001FE0003FFC
:101AB000C0007F8000FF0001FE0003FC0007F8006B
:101AC0000FEFFFEEBFFFE8FFFFE0FFFF80400005E4
:101AD000C0001FC0007F8000FF0001FE0003FC006B
:101AE00007F8000FF0001FE0003FC0007F8000FFFC
:101AF0000001FE0003FC0007F8000FF0001FE000EB
:101B00003F80003EFFFF3BFFFF37FFFE77FFF9F00E
:101B10000007F0001FE0003FC0007F8000FF0001D1
:101B2000FE0003FC0007F8000FF0001FE0003FC0BC
:101B3000007F8000FF0001FE0003FC0007F00007AB
:101B4000E0000E800008400005C0001FC0007F803C
:101B500000FF0001FE0003FC0007F8000FF0001F6B
:101B6000E0003FC0007F8000FF0001FE0003FC009A
:101B700007F8000FF0001FE0003F80003EFFFF3B32
:101B8000FFFF27FFFE47FFF980000700001E00004F
:101B90003C0000780000F00001E00003C000078076
:101BA000000F00001E00003C0000780000F0000163
:101BB000E00003C0000780000F0FFFEE3FFFE8FFCB
:101BC000FFE0FFFF801FFFF07FFFF07FFFD07FFF70
:101BD000700001E00003C0000780000F00001E003D
:101BE000003C0000780000F00001E00003C00007A6
:101BF00080000F00001E00003C0000780000F00094
:101C000000E00000C00000C00000C00001C00003F0
:101C1000C0000780000F00001E00003C000078009C
:101C200000F00001E00003C0000780000F00001E6C
:101C300000003C0000780000F00001E00003BFFF5E
:101C400082FFFF83FFFF83FFFE000000080000709B
:101C50000003C0000F00003C0000F00003C0000FB4
:101C600000003C0000F00003C0000F00003C00003A
:101C7000F00003C0000F00003C0000F00001DFFF97
:101C8000F37FFFE5FFFF97FFFCC0000700003C006B
:101C900000F00003C0000F00003C0000F00003C093
:101CA000000F00003C0000F00003C0000F00003CEB
:101CB0000000F00003C0000700001C000020C0006E
:101CC00001C00003C0000780000F00001E00003CA0
:101CD0000000780000F00001E00003C00007800071
:101CE0000F00001E00003C0000780000F00001E042
:101CF00000038000060000000000000000C0000398
:101D000080000F00001E00003C0000780000F00082
:101D100001E00003C0000780000F00001E00003C2F
:101D20000000780000F00001E00003C00007800020
:101D30000700000640000380000F00003C0000F098
:101D40000003C0000F00003C0000F00003C0000FC3
:101D500000003C0000F00003C0000F00003C000049
:101D6000F00003C0000E000037FFFEBFFFFAFFFFC8
:101D7000EDFFFFB80000F00003C0000F00003C00C2
:101D800000F00003C0000F00003C0000F00003C0A2
:101D9000000F00003C0000F00003C0000F000038FE
:101DA0000000E000010000001FFFF07FFFF17FFF57
:101DB000D77FFF7F0001FE0003FC0007F8000FF053
:101DC000001FE0003FC0007F8000FF0001FE000315
:101DD000FC0007F8000FF0001FE0003FC0007F800C
:101DE00000FE0000F80000C03FFFC7FFFE7FFFF7C6
:101DF000FFFE7FFFE3FFFFC7FFFE8FFFF700003C02
:101E00000000F00003C0000F00003C0000F00003E1
:101E1000C0000F00003C0000F00003C0000F0000F5
:101E20003C0000F00003C0000F00001C0000300068
:101E30000000000300001C0000F00003C0000F00C1
:101E4000003C0000F00003C0000F00003C0000F068
:101E50000003C0000F00003C0000F00003C0000FB2
:101E600000003C0000700000C01FFFF07FFFF17F0A
:101E7000FFD77FFF7F0001FE0003FC0007F8000F83
:101E8000F0001FE0003FC0007F8000FF0001FE0067
:101E900003FC0007F8000FF0001FE0003FC0007FC8
:101EA0008000FE0000FBFFFCEFFFFCDFFFF9DFFF1F
:101EB000E7C0001FC0007F8000FF0001FE0003FCA0
:101EC0000007F8000FF0001FE0003FC0007F800017
:101ED000FF0001FE0003FC0007F8000FF0001FC028
:101EE000001F80003A000020400001C00003C00035
:101EF0000780000F00001E00003C0000780000F08A
:101F00000001E00003C0000780000F00001E000079
:101F10003C0000780000F00001E00003800006FFB4
:101F2000FF0BFFFF17FFFE77FFF9F00007F0001F20
:101F3000E0003FC0007F8000FF0001FE0003FC00C6
:101F400007F8000FF0001FE0003FC0007F8000FF97
:101F50000001FE0003FC0007F8000FEFFFEEBFFFDB
:101F6000E8FFFFE0FFFF801FFFF8FFFFEBFFFFB779
:101F7000FFFEE00003C0000F00003C0000F0000383
:101F8000C0000F00003C0000F00003C0000F000084
:101F90003C0000F00003C0000F00003C0000F00017
:101FA00003BFFFC5FFFF8FFFFF1FFFF80000040006
:101FB000001C0000780000F00001E00003C00007F2
:101FC00080000F00001E00003C0000780000F000C0
:101FD00001E00003C0000780000F00001E00003C6D
:101FE000000038FFFF33FFFF37FFFE77FFF9F000F7
:101FF00007F0001FE0003FC0007F8000FF0001FEEF
:102000000003FC0007F8000FF0001FE0003FC000D5
:102010007F8000FF0001FE0003FC0007F8000FEFC7
:10202000FFEEBFFFE8FFFFE0FFFF801FFFF8FFFFAD
:10203000F5FFFFBBFFFCF00003C0000F00003C00F9
:1020400000F00003C0000F00003C0000F00003C0DF
:10205000000F00003C0000F00003C0000F00003C37
:102060000000E000037FFFEBFFFFAFFFFEDFFFFBA1
:1020700080000F00003C0000F00003C0000F0000D3
:102080003C0000F00003C0000F00003C0000F00026
:1020900003C0000F00003C0000F00003C0000EFF72
:1020A000FF17FFFE3FFFFC7FFFE01FFFF8FFFFF57C
:1020B000FFFFBBFFFCF00003C0000F00003C00006E
:1020C000F00003C0000F00003C0000F00003C0005F
:1020D0000F00003C0000F00003C0000F00003C00B7
:1020E00000E000037FFFEBFFFFAFFFFEDFFFFB80A1
:1020F000000F00003C0000F00003C0000F00003C97
:102100000000F00003C0000F00003C0000F00003DE
:10211000C0000F00003C0000F0000380000E000033
:102120001000001FFFF07FFFF17FFFC77FFF0F0050
:10213000001E00003C0000780000F00001E00003F9
:10214000C0000780000F00001E00003C0000780067
:1021500000F00001E00003C0000780000E0000183E
:102160000000200000400001C00007C0001FC000A8
:102170007F8000FF0001FE0003FC0007F8000FF065
:10218000001FE0003FC0007F8000FF0001FE000351
:10219000FC0007F8000FF0001FE0003FBFFFBAFF90
:1021A000FFA3FFFF83FFFE00400001C00003C0004B
:1021B0000780000F00001E00003C0000780000F0C7
:1021C0000001E00003C0000780000F00001E0000B7
:1021D0003C0000780000F00001E00003800006FFF2
:1021E000FF0BFFFF17FFFE77FFF9F00007F0001F5E
:1021F000E0003FC0007F8000FF0001FE0003FC0004
:1022000007F8000FF0001FE0003FC0007F8000FFD4
:102210000001FE0003FC0007F00007E0000E800054
:102220000837FFFFFFFFFFFFFFFF73000004000000
:102230001C0000780000F00001E00003C0000780EF
:10224000000F00001E00003C0000780000F00001BC
:10225000E00003C0000780000F00001E00003C00EB
:1022600000380000300000300000700001F000076E
:10227000F0001FE0003FC0007F8000FF0001FE0073
:1022800003FC0007F8000FF0001FE0003FC0007FD4
:102290008000FF0001FE0003FC0007F8000FEFFFC5
:1022A000EEBFFFE8FFFFE0FFFF801FFFF07FFFF1C1
:1022B0007FFFC77FFF0F00001E00003C000078007A
:1022C00000F00001E00003C0000780000F00001EC6
:1022D00000003C0000780000F00001E00003C000B6
:1022E0000780000E00001BFFFC2FFFFC5FFFF9DFE3
:1022F000FFE7C0001FC0007F8000FF0001FE000359
:10230000FC0007F8000FF0001FE0003FC0007F80D6
:1023100000FF0001FE0003FC0007F8000FF0001FA3
:10232000C0001F80003A00002040000380000F0022
:10233000003C0000F00003C0000F00003C0000F073
:102340000003C0000F00003C0000F00003C0000FBD
:1023500000003C0000F00003C0000E000030000050
:1023600080000200000C0000380000F00003C000F4
:102370000F00003C0000F00003C0000F00003C0014
:1023800000F00003C0000F00003C0000F00003C09C
:10239000000F00003C0000EFFFF17FFFE3FFFFC7ED
:1023A000FFFE1FFFF07FFFF17FFFD77FFF7F000160
:1023B000FE0003FC0007F8000FF0001FE0003FC024
:1023C000007F8000FF0001FE0003FC0007F8000F03
:1023D000F0001FE0003FC0007F8000FE0000F8001A
:1023E00000C00000600003E0000FE0003FC0007F7D
:1023F0008000FF0001FE0003FC0007F8000FF00062
:102400001FE0003FC0007F8000FF0001FE0003FCD2
:102410000007F8000FF0001FC0001F0000181FFF8A
:10242000E07FFFE2FFFFCEFFFF3E0000FE0003FC67
:102430000007F8000FF0001FE0003FC0007F8000A1
:10244000FF0001FE0003FC0007F8000FF0001FE092
:10245000003FC0007F8000FE0000FC0001D00001B2
:10246000001FFFE07FFFE2FFFFCEFFFF3E0000FE08
:102470000003FC0007F8000FF0001FE0003FC00061
:102480007F8000FF0001FE0003FC0007F8000FF052
:10249000001FE0003FC0007F8000FF0001FDFFFD46
:1024A000D7FFFD1FFFFC1FFFF01FFFF07FFFF17F35
:1024B000FFD77FFF7F0001FE0003FC0007F8000F3D
:1024C000F0001FE0003FC0007F8000FF0001FE0021
:1024D00003FC0007F8000FF0001FE0003FC0007F82
:1024E0008000FE0000FBFFFCEFFFFCDFFFF8DFFFDA
:1024F000E1C00003C0000780000F00001E00003C88
:102500000000780000F00001E00003C00007800038
:102510000F00001E00003C0000780000F00001C029
:1025200000038000020000001FFFF07FFFF17FFF2B
:10253000D77FFF7F0001FE0003FC0007F8000FF0CB
:10254000001FE0003FC0007F8000FF0001FE00038D
:10255000FC0007F8000FF0001FE0003FC0007F8084
:1025600000FE0000FBFFFCEFFFFC9FFFF91FFFE6F2
:1025700000001C0000780000F00001E00003C00033
:102580000780000F00001E00003C0000780000F0F3
:102590000001E00003C0000780000F00001E0000E3
:1025A0001C0000380000201FFFF8FFFFEBFFFFB703
:1025B000FFFEE00003C0000F00003C0000F000033D
:1025C000C0000F00003C0000F00003C0000F00003E
:1025D0003C0000F00003C0000F00003C0000E000E1
:1025E00003800004000000400001C00003C0000799
:1025F00080000F00001E00003C0000780000F0008A
:1026000001E00003C0000780000F00001E00003C36
:102610000000780000F00001E00003800006FFFFEA
:102620000BFFFF07FFFE47FFF980000700001E00B9
:10263000003C0000780000F00001E00003C000074B
:1026400080000F00001E00003C0000780000F00039
:1026500001E00003C0000780000F0FFFEE3FFFE81E
:10266000FFFFE0FFFF8040000380000F00003C0000
:1026700000F00003C0000F00003C0000F00003C0A9
:10268000000F00003C0000F00003C0000F00003C01
:102690000000F00003C0000E000037FFFEBFFFFA8D
:1026A000FFFFEDFFFFB80000F00003C0000F0000C7
:1026B0003C0000F00003C0000F00003C0000F000F0
:1026C00003C0000F00003C0000F00003C0000F003A
:1026D000003C0000EFFFF17FFFE3FFFFC7FFFE803C
:1026E000000380000F80003F8000FF0001FE000318
:1026F000FC0007F8000FF0001FE0003FC0007F80E3
:1027000000FF0001FE0003FC0007F8000FF0001FAF
:10271000E0003FC0007F7FFF75FFFF47FFFF07FF1F
:10272000FC00400005C0001FC0007F8000FF0001CA
:10273000FE0003FC0007F8000FF0001FE0003FC0A0
:10274000007F8000FF0001FE0003FC0007F8000F7F
:10275000F0001FE0003F80003E0000380000300025
:1027600000700001F00007F0001FE0003FC0007F94
:102770008000FF0001FE0003FC0007F8000FF000DE
:102780001FE0003FC0007F8000FF0001FE0003FC4F
:102790000007F8000FEFFFEEBFFFE8FFFFE0FFFFCD
:1027A00080400005C0001FC0007F8000FF0001FEC8
:1027B0000003FC0007F8000FF0001FE0003FC0001E
:1027C0007F8000FF0001FE0003FC0007F8000FF00F
:1027D000001FE0003F80003EFFFF3BFFFF37FFFE92
:1027E00077FFF9F00007F0001FE0003FC0007F8096
:1027F00000FF0001FE0003FC0007F8000FF0001FBF
:10280000E0003FC0007F8000FF0001FE0003FC00ED
:1028100007F8000FEFFFEEBFFFE8FFFFE0FFFF80CC
:10282000400005C0001FC0007F8000FF0001FE00C7
:1028300003FC0007F8000FF0001FE0003FC0007F1E
:102840008000FF0001FE0003FC0007F8000FF0000D
:102850001FE0003F80003EFFFF3BFFFF37FFFE779A
:10286000FFF9F00007F0001FE0003FC0007F80008C
:10287000FF0001FE0003FC0007F8000FF0001FE05E
:10288000003FC0007F8000FF0001FE0003FC000746
:10289000F00007E0000E800008400005C0001FC0E7
:1028A000007F8000FF0001FE0003FC0007F8000F1E
:1028B000F0001FE0003FC0007F8000FF0001FE002D
:1028C00003FC0007F8000FF0001FE0003F80003E0F
:1028D000FFFF3BFFFF27FFFE47FFF98000070000D7
:1028E0001E00003C0000780000F00001E00003C082
:1028F000000780000F00001E00003C000078000070
:10290000F00001E00003C0000780000F0FFFEE3F62
:10291000FFE8FFFFE0FFFF801FFFF07FFFF07FFF7A
:10292000D07FFF700001E00003C0000780000F00AF
:10293000001E00003C0000780000F00001E00003F1
:10294000C0000780000F00001E00003C000078005F
:1029500000F00000E00000C00000C00000C0000166
:10296000C00003C0000780000F00001E00003C00F4
:1029700000780000F00001E00003C0000780000FB5
:1029800000001E00003C0000780000F00001E000A4
:1029900003BFFF82FFFF83FFFF83FFFE001FFFF8DF
:1029A000FFFFF5FFFFBBFFFCF00003C0000F0000BE
:1029B0003C0000F00003C0000F00003C0000F000ED
:1029C00003C0000F00003C0000F00003C0000F0037
:1029D000003C0000E00003000000CEFFFFFFFFFF0F
:1029E000FFFFFFEC0CEFFFFFFFFFFFFFFFFEC07FCD
:1029F000FFE3FFFFC7FFFE8FFFF700003C0000F082
:102A00000003C0000F00003C0000F00003C0000FF6
:102A100000003C0000F00003C0000F00003C00007C
:102A2000F00003C0000F00001C0000306FFF604387
:102A30007573746F6D2044657669636520646F6596
:102A400073206E6F742066697420696E204D656D09
:102A50006F727900437573746F6D20446576696396
:102A60006520646F6573206E6F74206669742069D9
:102A70006E204D656D6F7279002200FF21E5054CD7
:102A80000320007E00306E2F61004F4B004F4B0043
:102A90004F4B00646F6573206E6F742066697420FD
:102AA000696E204D656D6F7279004661696C757253
:102AB000652C20454550524F4D2073697A6520653D
:102AC000786365656465642000437573746F6D2079
:102AD00044657669636520646F6573206E6F74204A
:102AE00066697420696E204D656D6F72790043755B
:102AF00073746F6D20446576696365206973206E19
:102B00006F7420737570706F7274656420627920C1
:102B100074686973206669726D7761726520766585
:102B20007273696F6E00437573746F6D20446576C0
:102B300069636520646F6573206E6F7420666974C5
:102B400020696E204D656D6F727900496E707574E5
:102B50005368696674657220617272617920646F6E
:102B60006573206E6F742066697420696E746F20BF
:102B70004D656D6F7279004F757470757453686927
:102B80006674657220617272617920646F6573206A
:102B90006E6F742066697420696E746F204D656D68
:102BA0006F7279004D465374657070657220646F62
:102BB0006573206E6F742066697420696E204D65A0
:102BC0006D6F7279004C6564205365676D656E7436
:102BD00020617272617920646F6573206E6F74205A
:102BE00066697420696E746F204D656D6F7279002F
:102BF0004661696C757265206F6E207265616469EB
:102C00006E6720636F6E66696700676167616775ED
:102C1000204D465F413332305F454C45435F424172
:102C200054545F4F4C4544204D656761007E306DC4
:102C300079335B5F707F7B771F0D3D4F470000004E
:102C40000000000000000000000000000000000084
:102C5000000000000000000000800180257E306D33
:102C600079335B5F707F7B00000009000000777F95
:102C70004E7E4F475F37307C000E00767E677E7752
:102C80005B463E000000336D4E13780008007D1F48
:102C90000D3D4F477B373038000600151D67730523
:102CA0005B0F1C000000276D4E0078000044657625
:102CB000696365427566666572204F766572666CFB
:102CC0006F77210000000000003E5B4F5B3E3E6BD3
:102CD0004F6B3E1C3E7C3E1C183C7E3C181C577DB6
:102CE000571C1C5E7F5E1C00183C1800FFE7C3E702
:102CF000FF0018241800FFE7DBE7FF30483A060E14
:102D00002629792926407F050507407F05253F5A5A
:102D10003CE73C5A7F3E1C1C08081C1C3E7F1422CA
:102D20007F22145F5F005F5F06097F017F00668975
:102D3000956A606060606094A2FFA29408047E04BB
:102D40000810207E201008082A1C08081C2A0808E1
:102D50001E101010100C1E0C1E0C30383E383006A1
:102D60000E3E0E06000000000000005F000000079D
:102D7000000700147F147F14242A7F2A12231308CB
:102D8000646236495620500008070300001C2241A7
:102D9000000041221C002A1C7F1C2A08083E08084B
:102DA00000807030000808080808000060600020FB
:102DB000100804023E5149453E00427F40007249DE
:102DC0004949462141494D331814127F1027454582
:102DD00045393C4A49493141211109073649494998
:102DE00036464949291E0000140000004034000006
:102DF000000814224114141414140041221408026F
:102E0000015909063E415D594E7C1211127C7F49E1
:102E10004949363E414141227F4141413E7F494936
:102E200049417F090909013E414151737F08080862
:102E30007F00417F41002040413F017F0814224133
:102E40007F404040407F021C027F7F0408107F3E8D
:102E50004141413E7F090909063E4151215E7F09FA
:102E6000192946264949493203017F01033F404061
:102E7000403F1F2040201F3F4038403F631408144C
:102E80006303047804036159494D43007F41414184
:102E90000204081020004141417F04020102044065
:102EA00040404040000307080020545478407F28E9
:102EB0004444383844444428384444287F385454DF
:102EC000541800087E090218A4A49C787F08040402
:102ED0007800447D40002040403D007F10284400A1
:102EE00000417F40007C047804787C080404783832
:102EF00044444438FC1824241818242418FC7C0862
:102F0000040408485454542404043F44243C4040DE
:102F1000207C1C2040201C3C4030403C4428102891
:102F2000444C9090907C4464544C440008364100DA
:102F30000000770000004136080002010204023C54
:102F40002623263C1EA1A161123A4040207A385423
:102F5000545559215555794122545478422155549C
:102F6000784020545579400C1E52721239555555EF
:102F700059395454545939555454580000457C41DA
:102F80000002457D420001457C407D1211127DF01A
:102F9000282528F07C545545002054547C547C0A44
:102FA000097F4932494949323A4444443A324A480D
:102FB00048303A4141217A3A42402078009DA0A011
:102FC0007D3D4242423D3D4040403D3C24FF242463
:102FD000487E4943662B2FFC2F2BFF0929F620C082
:102FE000887E090320545479410000447D413048D3
:102FF000484A32384040227A007A0A0A727D0D1916
:10300000317D2629292F28262929292630484D4077
:1030100020380808080808080808382F10C8ACBA73
:103020002F102834FA00007B000008142A142222F2
:10303000142A14085500550055AA55AA55AAFF553B
:10304000FF55FF000000FF00101010FF00141414C3
:10305000FF001010FF00FF1010F010F0141414FC0B
:10306000001414F700FF0000FF00FF1414F404FC28
:10307000141417101F10101F101F1414141F001009
:103080001010F0000000001F101010101F10101082
:1030900010F010000000FF10101010101010101091
:1030A000FF10000000FF140000FF00FF00001F10D1
:1030B000170000FC04F414141710171414F404F48B
:1030C0000000FF00F714141414141414F700F7147C
:1030D0001414171410101F101F141414F4141010CB
:1030E000F010F000001F101F0000001F140000006F
:1030F000FC140000F010F01010FF10FF141414FF67
:10310000141010101F00000000F010FFFFFFFFFF61
:10311000F0F0F0F0F0FFFFFF0000000000FFFF0FF5
:103120000F0F0F0F3844443844FC4A4A4A347E0299
:10313000020606027E027E0263554941633844441A
:103140003C04407E201E2006027E020299A5E7A5CF
:10315000991C2A492A1C4C7201724C304A4D4D3040
:103160003048784830BC625A463D3E494949007E65
:103170000101017E2A2A2A2A2A44445F44444051FC
:103180004A444040444A51400000FF0103E080FFB0
:10319000000008086B6B083612362436060F090F3C
:1031A00006000018180000001010003040FF010158
:1031B000001F01011E00191D1712003C3C3C3C0081
:1031C00000000000000103070F1F3F7F0080C0E0E8
:1031D000F0F8FCFE4C6F6164696E6720636F6E6689
:1031E0006967206661696C65640000002100240045
:1031F00027002A002D0030003300010100000401E7
:1032000007010A01000020002300260029002C00ED
:103210002F00320000010000030106010901000037
:103220000A0B02090C0D0E08070304010000000040
:10323000000000000000000000000000000000008E
:10324000000000000000000000001211100000004B
:10325000000000000000000000000000000000006E
:1032600000000000DB40A4A62EAF2000A1C8D300C0
:10327000408DAED580A80102102020080810204003
:10328000102040800201020108040201010204082A
:1032900010204080804020100804020180040201B8
:1032A0008040201008040201080402010102040801
:1032B00010204080010204081020408000002200FD
:1032C000250028002B002E003100340002010000F0
:1032D000050108010B010505050507050808080893
:1032E000020202020A0A080804040404010101019E
:1032F0000101010103030303030303030407070799
:103300000C0C0C0C0C0C0C0C02020202060606063D
:10331000060606060B0B0B0B0B0B0B0B4A5BC25F77
:1033200011241FBECFEFD1E2DEBFCDBF00E00CBF46
:1033300014E0A0E0B2E0E4E0FDEC00E00BBF02C06E
:1033400007900D92A831B107D9F722E1A8E1B4E0C6
:1033500001C01D92AE30B207E1F719E1CFE8D9E123
:1033600000E006C021970109802FFE010E94C8627B
:10337000CE38D10780E00807A9F70E94085C0C94BA
:1033800070660C94000091E09093E80F80930A100F
:103390001092E90F10920B1008950F931F93CF9383
:1033A000DF93EC01E881F9810284F385E02D199522
:1033B000E881F9810088F189E02D01E010E025E045
:1033C00030E048E350E06CE370E0CE011995E8810D
:1033D000F9810088F189E02D25E030E048E350E0F4
:1033E0006DE370E0CE011995E881F9810088F189DB
:1033F000E02D25E030E048E350E06BE370E0CE01E3
:103400001995E881F9810088F189E02D23E030E009
:1034100049E350E06EE370E0CE011995E881F9814F
:103420000088F189E02D23E030E049E350E06AE3D1
:1034300070E0CE011995E881F9810688F789E02DC1
:10344000CE01DF91CF911F910F911994AC01109291
:10345000E3109091B3118091B211FA01BF01641B86
:10346000750B2091E31030813093E310931304C067
:10347000921302C01092E3103081311104C09217F0
:1034800021F0CB0108953817D1F33196E7CF0F9390
:103490001F93CF93DF938091A711882309F446C02F
:1034A000D0E0C0E0813029F482E08093A711C7EE1C
:1034B000D0E18091A811882341F1209721F4C09197
:1034C000AC11D091AD118E01CE010E94261A892B2C
:1034D00029F42196F80180818111F5CFF8018081CE
:1034E000882309F1C8010E94261AF801E80FF91F84
:1034F0008081882311F010823196F093AD11E09312
:10350000AC111093AB110093AA118091AA11909164
:10351000AB11892B59F081E08093A811DF91CF91F5
:103520001F910F91089510E000E0EBCF80E0F6CFFF
:10353000FC0120812EBD0DB407FEFDCF2EB5FC0190
:1035400020830895089508950E94471A882351F012
:1035500081E08093A8118093A9118091AA11909184
:10356000AB1108951092A91190E080E00895CF93D7
:10357000DF93DC01FD01EC012881222351F0309121
:10358000B311231301C00196FC0120812D930196F4
:10359000F1CFE817F90710F41192FBCFDF91CF912B
:1035A00008958150823108F05AC0E82FF0E0882752
:1035B000E352F54E8F4F0C94C862FD1A011BEF1AAF
:1035C000F51AF91A2F1B041B0A1B0E1B141B181BC0
:1035D0001C1B221B261B2F1B2A1B301B341B8091FC
:1035E00080008F77809380000895809180008F7D88
:1035F000F9CF80918000877FF5CF84B58F7784BD28
:10360000089584B58F7DFBCF8091B0008F77809334
:10361000B00008958091B0008F7DF9CF8091900027
:103620008F77809390000895809190008F7DF9CFDF
:1036300080919000877FF5CF8091A0008F77809355
:10364000A00008958091A0008F7DF9CF8091A00007
:10365000877FF5CF809120018F7780932001089597
:10366000809120018F7DF9CF80912001877FF5CF58
:10367000CF93DF93282F30E0F901E25EFD4C849177
:10368000F901EA58FD4CD491F901EA52FD4CC4917C
:10369000CC23A1F081110E94D11AEC2FF0E0EE0FA3
:1036A000FF1FEC5FFD4CA591B491EC91ED2381E0FF
:1036B00090E009F480E0DF91CF91089580E090E000
:1036C000FACF1F93CF93DF93282F30E0F901E25E0A
:1036D000FD4C8491F901EA58FD4CD491F901EA526C
:1036E000FD4CC491CC23A9F0162F81110E94D11A50
:1036F000EC2FF0E0EE0FFF1FE454FD4CA591B491C8
:103700008FB7F894EC91111108C0D095DE23DC93AB
:103710008FBFDF91CF911F910895DE2BF8CFCF930C
:10372000DF9390E0FC01EA58FD4C24918A529D4CB5
:10373000FC0184918823C9F090E0880F991FFC0157
:10374000E651FE4CA591B491FC01E454FD4CC591A9
:10375000D49161110DC09FB7F8948C91209582236C
:103760008C938881282328839FBFDF91CF91089570
:10377000623051F49FB7F8943C91822F8095832357
:103780008C93E8812E2BEFCF8FB7F894EC912E2BF2
:103790002C938FBFEACF61E085E30E94611B61E05B
:1037A00085E30E948F1B8CB580618CBD8CB58064D5
:1037B0008CBD61E084E30E948F1B61E083E30C9485
:1037C0008F1B8230910538F0880F991F880F991F41
:1037D00005970197F1F708959F92AF92BF92CF920C
:1037E000DF92EF92FF920F931F93CF93DF93EC0141
:1037F0005B018885998511E0892B09F010E8F501B6
:10380000E0808E2D8123992493948111912C2C8119
:103810003D814E815F8160E271EA87E090E00E9425
:103820006762022FF12CC22ED12C002319F0C601A1
:103830000E94E11B8A85982F977F09F04FC08D85E4
:103840008F3F89F09E2D912381E009F480E0891556
:1038500051F0EF85F8898F899923D1F19081892BD7
:10386000808399249394E989FA898081998D892BA1
:103870008083002319F0C6010E94E11B8E858F3FD3
:1038800039F0EB89FC898081988D892309F0F12A30
:10389000E989FA899081898D80958923808388853B
:1038A0009985892B09F073C0110F1111BECF8E8538
:1038B0008F3F11F0F501F082DF91CF911F910F91B1
:1038C000FF90EF90DF90CF90BF90AF909F900895C2
:1038D0009081809589238083912CC5CF8C30A1F570
:1038E0008D858F3F49F0EF85F8898F899E2D912333
:1038F00039F19081892B8083E989FA899081898DBA
:10390000809589238083002319F0C6010E94E11B62
:10391000E989FA898081998D892B8083002319F0A8
:10392000C6010E94E11B8E858F3F09F4B8CFEB8959
:10393000FC898081988D892309F4B1CFF12AAFCF1A
:10394000908180958923D7CFE989FA898081998DE3
:10395000892B8083002319F0C6010E94E11B8D850D
:103960008F3F49F0EF85F8898F899E2D912359F07B
:103970009081892B8083E989FA899081898D80954E
:1039800089238083D0CF908180958923F3CF1695AA
:103990008CCF3FB7F8948091C80B9091C90BA09140
:1039A000CA0BB091CB0B26B5A89B05C02F3F19F0D1
:1039B0000196A11DB11D3FBFBA2FA92F982F8827AF
:1039C000BC01CD01620F711D811D911D42E0660F8A
:1039D000771F881F991F4A95D1F708958F929F925C
:1039E000AF92BF92CF92DF92EF92FF924B015C01B8
:1039F0000E94C91C6B017C010E94C91C6C197D09C5
:103A00008E099F09683E734081059105A8F321E066
:103A1000821A9108A108B10888EEC80E83E0D81E6A
:103A2000E11CF11C81149104A104B10429F7FF9059
:103A3000EF90DF90CF90BF90AF909F908F900895C0
:103A40002FB7F8946091C40B7091C50B8091C60B91
:103A50009091C70B2FBF0895DC01ED91FC9101906F
:103A6000F081E02D1994EF92FF920F931F93CF9363
:103A7000DF937C016091B2118091AF119091B011F0
:103A80000E942C1D0091AF111091B011E701FE01B1
:103A90006491662359F0D801ED91FC910190F08179
:103AA000E02DC80119952196892B89F7DF91CF91D7
:103AB0001F910F91FF90EF900895DB0114964D91A7
:103AC0005C9115976D917C91DC01ED91FC910280E8
:103AD000F381E02D1994AF92BF92CF92DF92EF92D3
:103AE000FF920F931F93CF93DF936C017B018B01A8
:103AF000040F151FEB015E01AE18BF08C017D107F8
:103B000059F06991D601ED91FC910190F081E02D81
:103B1000C6011995892B79F7C501DF91CF911F91C6
:103B20000F91FF90EF90DF90CF90BF90AF900895EE
:103B3000FC01538D448D252F30E0842F90E0821BB3
:103B4000930B541710F0CF96089501970895FC0138
:103B5000918D828D981779F0A28DAE0FBF2FB11D78
:103B60005D962C91828D8F5F60E60E94A862928F95
:103B7000822F90E008958FEF9FEF0895FC01918DC3
:103B8000828D981731F0828DE80FF11D858D90E0C0
:103B900008958FEF9FEF0895FC01918D228D892F5D
:103BA00090E0805A9F4F821B910960E670E00E946E
:103BB000B462089581E290E10E94CC1D21E0892B3E
:103BC00009F420E0822F0895FC01A48DA80FB92FDD
:103BD000B11DA358BF4F2C91848D90E001968F7337
:103BE0009927848FA689B7892C93A089B1898C9154
:103BF000837080648C93938D848D981306C00288A3
:103C0000F389E02D80818F7D80830895EF92FF926C
:103C10000F931F93CF93DF93EC0181E0888F9B8DEF
:103C20008C8D98131AC0E889F989808185FF15C0A9
:103C30009FB7F894EE89FF896083E889F9898081CC
:103C40008370806480839FBF81E090E0DF91CF919B
:103C50001F910F91FF90EF900895F62E0B8D10E0BD
:103C60000F5F1F4F0F731127E02E8C8D8E110CC02C
:103C70000FB607FCFACFE889F989808185FFF5CF77
:103C8000CE010E94E41DF1CFEB8DEC0FFD2FF11D55
:103C9000E358FF4FF0829FB7F8940B8FEA89FB89B6
:103CA00080818062CFCFCF93DF93EC01888D882312
:103CB000B9F0AA89BB89E889F9898C9185FD03C08F
:103CC000808186FD0DC00FB607FCF7CF8C9185FF74
:103CD000F2CF808185FFEDCFCE010E94E41DE9CFB8
:103CE000DF91CF91089580E090E0892B29F00E9428
:103CF000DA1D81110E94000080E090E0892B49F0DC
:103D000080E090E0892B29F00E94000081110E9440
:103D1000000080E090E0892B49F080E090E0892B62
:103D200029F00E94000081110E94000080E090E0D4
:103D3000892B49F080E090E0892B29F00E94000057
:103D400081110C9400000895AF92BF92CF92DF9240
:103D5000EF92FF920F931F93CF93DF936B017A0142
:103D6000EC01CC56D44F28813CE0389F8001399F2C
:103D7000100D1124A090930BB12C27FF1FC0FB0145
:103D80001182108288818F5F888388819801280F33
:103D9000311D87FD3A95F6012A153B051CF48881F3
:103DA0008C30C4F180819181049680349C4908F460
:103DB00073C0F60180819181049670C0888198015A
:103DC000280F311D87FD3A952A153B05DCF68881C1
:103DD000A801480F511D87FD5A95FA01EE0FFF1FEC
:103DE000E40FF51FED5FF44F808186FFCBCF888114
:103DF000F801E80FF11D87FDFA95CF01EE0FFF1FC7
:103E0000E80FF91FED5FF44F808160E08F730E942F
:103E1000611BB8CF808191812881A801420F511D7B
:103E200027FD5A959A01FA01EE0FFF1FE20FF31FCB
:103E3000ED5FF44F21813281820F931FF70191834F
:103E4000808388819801280F311D87FD3A95F901FB
:103E5000EE0FFF1FE20FF31FED5FF44F808186FF2F
:103E600022C08881080F111D87FD1A95F801EE0FF9
:103E7000FF1FE00FF11FED5FF44F808161E08F7352
:103E8000DF91CF911F910F91FF90EF90DF90CF9036
:103E9000BF90AF900C94611B80E49CE9F701918383
:103EA00080838FEF8883DF91CF911F910F91FF90D7
:103EB000EF90DF90CF90BF90AF900895EF92FF9278
:103EC0000F931F93CF93DF93EC01EC80FD806E1571
:103ED0007F050CF070C057FF04C0240F351F50E061
:103EE00040E08E819F81FA01E20FF31F8E179F073A
:103EF0001CF49C01241B350B121613060CF05BC03E
:103F0000922F842F8695869586958E9DD0018F9DC4
:103F1000B00D11246A0F7B1FAF8DB8A1A60FB71F7C
:103F2000477049F188E0841B482F682F70E0FB013F
:103F3000E453FE4CE491281708F063C0621B71093A
:103F40002FEF30E002C0359527956A95E2F7E2231E
:103F50000130110539F0B0F10230110561F58C9195
:103F6000E82702C08C91E82BEC93941720F12C8168
:103F70003D81A20FB31FE92FE41BE83078F0023037
:103F8000110521F58E2F9C9190959C932C813D815C
:103F9000A20FB31F88508830B0F7E770EE2359F0B6
:103FA000F0E0EC53FE4CE49101301105F9F010F112
:103FB0000230110519F1DF91CF911F910F91FF9000
:103FC000EF900895E0958C91E823CECF81E0011524
:103FD000110509F480E081959E2F8C932C813D8101
:103FE000A20FB31F98509830C0F7D7CF8C91E82B11
:103FF000EC93E1CFE0958C91E823FACF8C91E82700
:10400000F7CF0130110509F4ADCFE0F20230110510
:1040100009F4A5CFAE0DBF1DAECF0F931F93CF9365
:10402000DF9377FF04C0260F371F70E060E0DC01EC
:104030001496CD91DC91FB01E20FF31FCE17DF0741
:104040001CF49E01261B370B121613064CF5FA01C1
:1040500057FD3796A3E0F595E795AA95E1F7EC9F14
:10406000D001ED9FB00DFC9FB00D11246A0F7B1F96
:10407000DC015F96ED91FC91E60FF71F4770552725
:1040800081E090E001C0880F4A95EAF7482F01309F
:10409000110559F0A8F02E0F3F1F02301105E1F075
:1040A000DF91CF911F910F9108952E0F3F1FE217BF
:1040B000F307B1F38191DF011197842B8C93F7CF34
:1040C00080952E0F3F1FE217F30751F39191DF0107
:1040D000119798239C93F7CFE217F30709F3819187
:1040E000DF01119784278C93F7CF0F931F93FA0169
:1040F000DC0156964C9156974230E9F04330A1F1DD
:10410000413061F514964D915C91DA01AE1BBF0B05
:10411000FD01E21BF30B77FD0BC0DC0116964D9100
:104120005C916417750724F4AB01BF010E940D2058
:104130001F910F91089514964D915C91DA01A61B81
:10414000B70BBD0161507109DC0116964D915C9170
:10415000DA01AE1BBF0BFD01E21BF30B77FDE8CFCD
:10416000AF010E945E1FE4CF16964D915C91DA017B
:10417000A61BB70BBD0161507109CDCF0F931F93E3
:10418000FA01DC0156964C9156974230A9F0433023
:1041900091F1413019F514964D915C91DA01AE1B05
:1041A000BF0BFD013197F7FD04C0AB01BF010E94B9
:1041B0005E1F1F910F91089514964D915C91DA0145
:1041C000A61BB70BBD01DC0116964D915C91DA017F
:1041D000AE1BBF0BFD013197621B730BF7FDE9CFDF
:1041E000DC0116964D915C91E417F50714F7AF01C9
:1041F0000E940D20DECF16964D915C91DA01A61B30
:10420000B70BBD01621B730BCECFFC0177FD64C001
:1042100080859185681779070CF05EC057FD5CC0FA
:1042200082859385481759070CF056C086898230DD
:10423000B1F0833029F1813041F484819581841B70
:10424000950BAB01BC01615071092130310509F1B9
:1042500008F443C02230310509F463C00895848115
:104260009581DC01A61BB70BBD01615071098681E8
:104270009781DC01A41BB50BAD0141505109E5CF7D
:1042800086819781861B970BBA01AC014150510979
:10429000DCCFCA0157FD0796A3E095958795AA95AF
:1042A000E1F7A481B5818A9F90018B9F300D9A9F81
:1042B000300D1124620F731F078CF0A1E02DE60F63
:1042C000F71F4770552721E030E001C0220F4A95C3
:1042D000EAF78081822B80830895CA0157FD0796F3
:1042E00033E0959587953A95E1F7A481B5818A9F4A
:1042F00090018B9F300D9A9F300D1124620F731F18
:10430000078CF0A1E02DE60FF71F4770552781E0DD
:1043100090E001C0880F4A95EAF780959081892343
:10432000DACFCA0157FD079623E0959587952A9520
:10433000E1F7A481B5818A9F90018B9F300D9A9FF0
:10434000300D1124620F731F078CF0A1E02DE60FD2
:10435000F71F4770552721E030E001C0220F4A9532
:10436000EAF780818227B7CF08958EBD00000DB493
:1043700007FEFDCF8EB508958CBD9DBD0895AF920B
:10438000BF92CF92DF92EF92FF920F931F93CF9342
:10439000DF931F92CDB7DEB78C015B016A01DC01B0
:1043A0008D919C911197892B39F01296ED91FC918A
:1043B000808191810E94BC21F80183858F3F19F093
:1043C00060E00E94611B7501CA0CDB1CEC14FD044B
:1043D000A9F0D7018D917D018983F80180819181B8
:1043E000892B29F0CE0101960E94981AEFCFBE01C9
:1043F0006F5F7F4FC8010E94EC1BE8CFD8011B966E
:104400008C918F3F19F061E00E94611B81E00F9059
:10441000DF91CF911F910F91FF90EF90DF90CF90A0
:10442000BF90AF900895FF920F931F93CF93DF93A8
:10443000FC0177FD72C080859185681779070CF0C3
:104440006CC057FD6AC082859385481759070CF0E8
:1044500064C08689823009F466C0833009F474C070
:10446000813041F484819581841B950BAB01BC01A3
:104470006150710981A592A5681779070CF4CB01E9
:1044800092A781A783A594A5481759070CF4CA01E0
:1044900094A783A785A596A5861797070CF4CB014B
:1044A00096A785A787A590A9841795070CF4CA013C
:1044B00090AB87A787A9813051F42130310509F4E9
:1044C0004CC008F470C02230310509F491C087A9AE
:1044D000843019F5A481B5814A9FC0014B9F900D8E
:1044E0005A9F900D112497FD019695958795AB01E4
:1044F00077FF02C04F5F5F4F55954795840F951F1B
:1045000007A0F0A5E02DE80FF91F908160FD95C090
:104510009F702295207F922B9083DF91CF911F91E6
:104520000F91FF900895848195818C01061B170BD4
:10453000B8016150710986819781DC01A41BB50B1C
:10454000AD014150510996CF86819781861B970B0B
:10455000BA01AC01415051098DCFCA0157FD0796F0
:10456000C3E095958795CA95E1F7C481D5818C9F65
:10457000D0018D9FB00D9C9FB00D1124CD01860FF1
:10458000971FA7A1B0A5A80FB91FEA01C770DD2723
:1045900081E090E08C0101C0000FCA95EAF78C9190
:1045A000802B8C9394CFCA0157FD0796B3E0959565
:1045B0008795BA95E1F7C481D5818C9FD0018D9FF5
:1045C000B00D9C9FB00D1124CD01860F971FA7A1A0
:1045D000B0A5A80FB91FEA01C770DD2781E090E000
:1045E00001C0880FCA95EAF780959C918923D9CF9D
:1045F000CA0157FD0796A3E095958795AA95E1F71F
:10460000C481D5818C9FD0018D9FB00D9C9FB00D32
:104610001124CD01860F971FA7A1B0A5A80FB91F20
:10462000EA01C770DD2781E090E08C0101C0000F36
:10463000CA95EAF78C918027B4CF907F2F70292BF1
:1046400020836BCF0895FC016370668B8481958114
:1046500026813781613039F0633029F09187808776
:10466000338722870895318720879387828708952B
:104670002F923F924F925F926F927F928F929F9272
:10468000AF92BF92CF92DF92EF92FF920F931F9360
:10469000CF93DF93CDB7DEB76A970FB6F894DEBF3E
:1046A0000FBECDBF9A8F898F7A8369834A01D22E3C
:1046B00018870F833701BC2CDC0159962D913C9152
:1046C0005A972115310509F015C118968D919C91C5
:1046D0001997681779070CF0D7C11A968D919C919C
:1046E000481759070CF0D0C14C2C512CB6E0CB9E8A
:1046F000600D711D11247C876B87161617060CF050
:10470000C3C1EA2DF0E0FA87E98793E0EE0FFF1FBF
:104710009A95E1F7F88BEF87CF01840F951F181654
:1047200019060CF0B1C1A98DBA8D58968C918111E2
:1047300004C0BFEABD1508F4D394A98DBA8DED91DC
:10474000FC9111970284F385E02DCD011995B5E018
:10475000DB9EC0011124E981FA81FC83EB83312CBB
:10476000212C9C012C53334D388F2F8B4A2D50E038
:104770005E8B4D8BEF89F88DE20DF31D44919E8287
:104780008D82D12CC12C69817A81620D731D7A8B47
:10479000698B842F90E09C8B8B8BE98DFA8DA081A7
:1047A000B18140FF82C0F1E0BF126FC0AF126DC097
:1047B0001C96ED91FC912F813885A4014C0D5D1D57
:1047C00069897A89898D9A8D1995EB89FC89F59586
:1047D000E7954E2F5FEFC51AD50A6D817E818D89D1
:1047E0009E89680F791F7E836D8398E0C916D10476
:1047F00081F6AFEF2A1A3A0AEB81FC81E40DF51D30
:10480000FC83EB83F5E02F16310409F0B3CF2F8141
:10481000388526153705B9F0A98DBA8DED91FC9133
:10482000B1E0BB1257C0AB1255C069817A816B5F92
:104830007F4F0088F189E02D830128E030E0A4015A
:10484000898D9A8D1995A98DBA8DED91FC9111974D
:104850000688F789E02DCD016A960FB6F894DEBF81
:104860000FBECDBFDF91CF911F910F91FF90EF90C1
:10487000DF90CF90BF90AF909F908F907F906F9080
:104880005F904F903F902F9019941E96ED91FC9160
:10489000EF80F88409851A8592014D815E816B81D4
:1048A0007C81898D9A8D199590CF2F813885261519
:1048B000370509F48ACF31E0B31207C0A31205C04F
:1048C0001C96ED91FC91930178CF1E96ED91FC9191
:1048D0007301E0CF6B857C85641975090684F785C3
:1048E000E02D73010F8518899201A401898D9A8D9D
:1048F0001995A9CFF9013496949132974591549125
:10490000D91AB7E0DB9E400D511D1124F901259104
:1049100034913C8B2B8BFA0125903490FA0132961E
:10492000749031963491398B3296649031964490DC
:1049300041E04C1518F04A1508F07FC0662D062C92
:10494000000C770B7C836B83842D042C000C990B5B
:104950009E838D83A98DBA8DED91FC911197028470
:10496000F385E02DCD011995512CD12CC12CEA2DC8
:10497000F0E0FA87E9872B2D30E03C872B87A401F4
:10498000440D511D47FC5A95588F4F8B69817A8190
:10499000660D711D67FC7A957E876D877989C716CC
:1049A00008F051CF2C2D30E04D815E81420F531F16
:1049B000A985BA854A9FC0014B9F900D5A9F900DC3
:1049C0001124FC01E80DF91DF88BEF87852D612C72
:1049D0004F89588D420F531F5E8B4D8B671408F023
:1049E00050C044244394480E877041F4C10101969D
:1049F000EB89FC89E20DF31DD4901C01D7FE19C090
:104A0000A98DBA8DED91FC91662D70E0B1E0BB12DD
:104A100019C0AB1217C02D853E85620F731F048429
:104A2000F585E02D2F8138854D895E89898D9A8D98
:104A30001995DD0C6394842DD1CF1E821D821C82BA
:104A40001B8288CF4B815C81640F751FAB85BC8551
:104A50006A9FC0016B9F900D7A9F900D1124698110
:104A60007A81680F791F0684F785E02DEF80F8843E
:104A700009851A859D014F855889898D9A8D1995CB
:104A8000D8CF570CC3948ACF6A960FB6F894DEBF7E
:104A90000FBECDBFDF91CF911F910F91FF90EF908F
:104AA000DF90CF90BF90AF909F908F907F906F904E
:104AB0005F904F903F902F9008958F929F92AF926A
:104AC000CF92EF92FF920F931F93CF93DF93EC015E
:104AD000262F898D9A8D009709F051C06A30D1F444
:104AE0001D861C868D8948E0849F900111248E8547
:104AF0009F85820F931F9F878E8781E090E0DF91D3
:104B0000CF911F910F91FF90EF90CF90AF909F901A
:104B10008F9008956D3089F3CC88AD888F89882374
:104B2000C1F08C859D8536E0C39E800D911D1124BA
:104B3000488559854817590764F44E855F851D8659
:104B40001C8638E0A39EC0011124840F951F9F8707
:104B50008E87EA88FB88088919894E855F856C8570
:104B60007D85CE010E9438232C898C859D8546E069
:104B7000249F800D911D11249D878C87BECF6A30A4
:104B800069F41D861C86FC013896E4912D898E857A
:104B90009F85E29F800D911D1124ADCF6D3009F4EA
:104BA000ACCFFC0134963491631708F4A6CF32964B
:104BB000E491E61708F4A1CFFC0132968590949019
:104BC000462F431B342F47E0349F800C911C112447
:104BD000F401329634913196E4913323A9F1EE2316
:104BE00099F1CC88F4013596E491AD884F8944233E
:104BF00001F10E2E000CFF0BE30FF11DCE9EA00164
:104C0000CF9E500D11246C857D85460F571F6885FA
:104C10007985641775076CF44E855F851D861C8643
:104C2000FC013896E491AE9E400D511D11245F8722
:104C30004E87EA88FB88088919894E855F856C85CF
:104C40007D85CE010E943823F4013496E4912C89AD
:104C50008C859D85E29F800D911D11248DCF6F92D3
:104C60007F928F929F92AF92BF92CF92DF92EF92FC
:104C7000FF920F931F93CF93DF93EC016B015A01C7
:104C800039014801E881F9810284F385E02D199505
:104C9000E881F9810288F389E02D87019301A5015C
:104CA000B601CE011995A501480D591D4150510974
:104CB000E881F9810288F389E02D9301B601CE01E4
:104CC0001995E881F9810088F189E02D9401A50109
:104CD000B601CE011995C60CD71CB60161507109F9
:104CE000E881F9810088F189E02D9401A501CE01C8
:104CF0001995E881F9810688F789E02DCE01DF91C9
:104D0000CF911F910F91FF90EF90DF90CF90BF90C8
:104D1000AF909F908F907F906F9019946F927F9239
:104D20008F929F92AF92BF92CF92DF92EF92FF92BB
:104D30000F931F93CF93DF935C01EB016A0149014D
:104D400038018701DC01ED91FC916217730719F5B9
:104D5000641675062CF0962D872D3A01C92ED82E93
:104D60009601261937092F5F3F4F048CF58DE02DF2
:104D7000A301BE01C5011995DF91CF911F910F913C
:104D8000FF90EF90DF90CF90BF90AF909F908F906B
:104D90007F906F9008954615570591F426173707B1
:104DA00024F0892D4B01C22FD82F9E0128193909D3
:104DB0002F5F3F4F068CF78DE02DA601B401DACFAF
:104DC0000284F385E02D1995D501ED91FC910488BD
:104DD000F589E02D83019401A601BE01C501199555
:104DE000D501ED91FC910688F789E02DC501DF9191
:104DF000CF911F910F91FF90EF90DF90CF90BF90D8
:104E0000AF909F908F907F906F901994EF92FF9248
:104E10000F931F93DC011A960D911C911B97189606
:104E20002D913C911997ED91FC9100A0F1A1E02DFD
:104E30007B0150E040E070E060E019951F910F9118
:104E4000FF90EF9008954F925F926F927F928F92B2
:104E50009F92AF92BF92CF92DF92EF92FF920F9309
:104E60001F93CF93DF936C012B015A013901480145
:104E7000DC01ED91FC910284F385E02D1995E201AE
:104E8000640C751CD601ED91FC91C615D7055CF438
:104E90000088F189E02D87019401A501BE01C601BA
:104EA00019952196EFCF0688F789E02DC601DF918D
:104EB000CF911F910F91FF90EF90DF90CF90BF9017
:104EC000AF909F908F907F906F905F904F901994CC
:104ED0008F929F92AF92BF92CF92DF92EF92FF920A
:104EE0000F931F93CF93DF93EC015B014A0169019C
:104EF000E881F9810284F385E02D199595012C0D47
:104F00003D1D21503109E881F9810488F589E02DA2
:104F100078018401A401B501CE011995E881F981D8
:104F20000688F789E02DCE01DF91CF911F910F9177
:104F3000FF90EF90DF90CF90BF90AF909F908F90B9
:104F400019948F929F92AF92BF92CF92DF92EF927D
:104F5000FF920F931F93CF93DF93EC015B014A0104
:104F600069017801E881F9810284F385E02D1995C2
:104F7000C80CD91C860101501109E881F981048807
:104F8000F589E02D9501A401B501CE011995E881BF
:104F9000F9810688F789E02DCE01DF91CF911F912D
:104FA0000F91FF90EF90DF90CF90BF90AF909F90C8
:104FB0008F9019940895EF92FF920F931F93DC0145
:104FC000ED91FC9100A0F1A1E02D19951F910F9199
:104FD000FF90EF9008950F931F93DC01ED91FC91EA
:104FE000068CF78DE02D19951F910F9108950F9361
:104FF0001F93DC01ED91FC91048CF58DE02D19954A
:105000001F910F910895DC01ED91FC910084F185D1
:10501000E02D19942F923F924F925F926F927F9260
:105020008F929F92AF92BF92CF92DF92EF92FF92B8
:105030000F931F93CF93DF9300D000D0CDB7DEB78F
:105040003C016A013E832D83FC82EB825801A41A45
:10505000B50AB7FE03C0B194A194B1088D809E80BB
:10506000861A970A97FE03C09194819491088A1436
:105070009B045CF0902F812F0D811E819D838E8378
:105080009C2D8D2D6B01692F782F0C151D055CF063
:105090009D818E817E836D83692F782F902F812F44
:1050A0008601C92ED82E1601201A310A2B012D8116
:1050B0003E81421A530A57FE03C05194419451084D
:1050C000710137FE03C03FEFE31AF30AF594E7944A
:1050D0008D819E81861797075CF5A1E0B0E0BA83C9
:1050E000A983C016D1064CF1D301ED91FC91048443
:1050F000F585E02D2B813C81A8016D817E818A148C
:105100009B041CF04D815E81B801C3011995E41820
:10511000F508F7FE0AC02D813E8189819A81280F0A
:10512000391F3E832D83E20CF31C0F5F1F4FD9CF35
:105130002FEF3FEF3A832983D4CF26960FB6F8940A
:10514000DEBF0FBECDBFDF91CF911F910F91FF90BA
:10515000EF90DF90CF90BF90AF909F908F907F9017
:105160006F905F904F903F902F90089508952091F9
:10517000E00A260F3327331F21323105ECF420914A
:10518000E20FFC0190E080E0243069F082E00895B5
:10519000A091E00A2191AC014054554FA40FB52FC6
:1051A000B11D2C930196861798F38091E00A680F41
:1051B0006093E00A80E0089581E008959B01AC01CE
:1051C00060E074E284EF90E00E9467622051310950
:1051D0004109510956954795379527952093B80071
:1051E00008951092E20F81E08093E10F1092BC0FBE
:1051F00061E084E10E94611B61E085E10E94611B26
:10520000E9EBF0E080818E7F808380818D7F8083D9
:1052100088E48093B80085E48093BC0008951092E0
:10522000BB0F1092BA0F1092E90F10920B100E9450
:10523000F12882EA9AE19093B90F8093B80F83EA3C
:105240009AE19093B70F8093B60F0895CF93DF93B1
:1052500091E09093BF0A8823B9F0C091B800D09133
:10526000BA008091BC008A7B8093BC0060E084E13E
:105270000E94611B60E085E10E94611B0E94F12891
:10528000D093BA00C093B800DF91CF9108958F9268
:105290009F92AF92BF92CF92DF92EF92FF920F93C5
:1052A0001F93CF93DF93D0910B10D13208F0D7C06A
:1052B000182FC0910A100E94C91C6B017C018091BB
:1052C000E20F81116BC082E08093E20F1093E10F37
:1052D0008FEF8093E00F1092DF0FD093DE0FAAEED6
:1052E000BFE0EEEBFFE080E0D81391C01092BD0F5D
:1052F0008091BD0FCC0FC82BC093BD0F8091BC0F08
:10530000813009F088C01092BC0F0E94C91C6B014B
:105310007C018091BD0F8093BB008091E40F909140
:10532000E50FA091E60FB091E70F892B8A2B8B2B0D
:10533000A1F00E94C91C0091E40F1091E50F20918B
:10534000E60F3091E70F6C197D098E099F0906174A
:1053500017072807390708F442C08091BC0083FD75
:10536000D8CF85EC8093BC000E94C91C6B017C01E6
:105370008091E20F823009F450C08091E00F8F3F9E
:1053800009F46FC08091E00F803209F46CC0809105
:10539000E00F803309F469C084E026C08091E40FF7
:1053A0009091E50FA091E60FB091E70F892B8A2B22
:1053B0008B2B09F484CF0E94C91C8090E40F90903D
:1053C000E50FA090E60FB090E70F6C197D098E09EC
:1053D0009F0986169706A806B90608F070CF809137
:1053E000E30F0E94262985E01092E90F10920B101E
:1053F0001092E80FDF91CF911F910F91FF90EF90E6
:10540000DF90CF90BF90AF909F908F9008959D9127
:1054100091938F5F69CF85EEA5CF8091E40F909136
:10542000E50FA091E60FB091E70F892B8A2B8B2B0C
:1054300009F49ECF0E94C91C0091E40F1091E50F62
:105440002091E60F3091E70F6C197D098E099F09B5
:10545000061717072807390708F08ACFC0CF81E061
:10546000C3CF80E0C1CF82E0BFCF83E0BDCFAF929A
:10547000BF92CF92DF92EF92FF920F931F93CF9341
:10548000DF93DA01A00FB11FEC01EC81FD81EA1777
:10549000FB0710F490E01CC069017A015B01888170
:1054A0000E94C319012B01F589819A81DC01ED91DC
:1054B000FC910280F381E02DA701B5011995E81652
:1054C000F90641F781E00E94472991E08111E2CF7E
:1054D000892FDF91CF911F910F91FF90EF90DF9077
:1054E000CF90BF90AF900895C114D104E9F28981A3
:1054F0009A81DC01ED91FC910280F381E02D41E085
:1055000050E0B6011995019729F6CECF2F923F9220
:105510004F925F926F927F928F929F92AF92BF92C3
:10552000CF92DF92EF92FF920F931F93CF93DF936F
:1055300000D000D000D01F92CDB7DEB77C0180E450
:105540008D83D70116962D913C91C901079697FD41
:10555000079673E0959587957A95E1F78987F70126
:1055600044815581242F83A594A597FD079663E078
:10557000959587956A95E1F7382ED70199964C90C5
:10558000241508F4442EF70165A576A577FD60E0A3
:10559000DA01BB27B887AF83842C912C5401489F34
:1055A000A00CB11C11242F5F260F2A87B9853B164A
:1055B00008F089C0F701C7A0D0A4CA0CDB1C848105
:1055C0005A84581A5418058CF68DE02D90EB930DE3
:1055D000D701DA968C919401280F311D44E035955E
:1055E00027954A95E1F7205F840D8F70309709F475
:1055F00048C064807580B1E06B1A71081A82198204
:105600009A832B838C83F701678D70A181A192A16E
:105610000E94DE2810E000E030E020E044E050E0AE
:10562000BE016F5F7F4FD7015D968D919C910E9467
:10563000372A6E825520B1F02E80521408F4252CA2
:10564000622C712C01E010E09E012B5F3F4FA30103
:10565000B601F701858D968D0E94372AC60CD71C9E
:105660005218E8CFD70193966D917D918D919C91C1
:1056700096970E94DE283394EF81F885AE0EBF1E08
:1056800095CF99832A838B8360E0F70181A90E94DB
:10569000611B43E050E0BE016F5F7F4FD7015B9617
:1056A0008D919C910E94BF2161E0F70181A90E9428
:1056B000611B452D50E0B601D7015B968D919C9101
:1056C0000E94BF21D8CF80E094E0D7019A969C93A6
:1056D0008E9399979C969C938E939B978FEF9FEFB9
:1056E0009E969C938E939D97D0969C938E939F9716
:1056F0002A960FB6F894DEBF0FBECDBFDF91CF91D3
:105700001F910F91FF90EF90DF90CF90BF90AF90DF
:105710009F908F907F906F905F904F903F902F90D1
:1057200008950F931F93CF93DF9300D0CDB7DEB7CB
:105730008C016B83FC01858D968D0097B1F01A82E8
:1057400019826A8310E000E030E020E042E050E09F
:10575000BE016F5F7F4F0E94372A0F900F900F900E
:10576000DF91CF911F910F91089560E081A90E9470
:10577000611B41E050E0BE016D5F7F4FF801838DFA
:10578000948D0E94BF21E9CF611103C066EA0C9499
:10579000912B67EAFCCFE091BB0F8091BA0FE8171D
:1057A00030F4F0E0E156F54F808190E008958FEFFE
:1057B0009FEF08959091BB0F8091BA0F2FEF3FEFAD
:1057C000981748F4E92FF0E0E156F54F208130E0DA
:1057D0009F5F9093BB0FC90108958091BA0F90917C
:1057E000BB0F891B990B0895CF92DF92EF92FF9226
:1057F0000F931F93CF93DF937C01CB018A012091FC
:10580000E80F222389F0EB016B01C40ED51ECC15E5
:10581000DD0569F06991D701ED91FC910190F0816E
:10582000E02DC7011995F3CF642F0E94B728C80156
:10583000DF91CF911F910F91FF90EF90DF90CF906C
:105840000895CF93DF931F92CDB7DEB76983209180
:10585000E80F2223F9F020910B10203258F021E0BC
:1058600030E0FC013383228390E080E00F90DF91F1
:10587000CF9108958091E90FE82FF0E0E651F04FC5
:10588000998190838F5F8093E90F80930B1081E063
:1058900090E0ECCF61E0CE0101960E94B728F7CFEF
:1058A000682F8CE090E10C94212CCF93C82F84605A
:1058B00090E00E94502C8C2F90E08B7FCF910C9425
:1058C000502C81E00C944729CF93DF93EC018B811E
:1058D000882371F088810E94C31989819A810E946E
:1058E000612C91E0811190E0892FDF91CF91089593
:1058F0000E940F2981E08B83CE010E94642C982F97
:105900008111E8CFF1CFCF92DF92EF92FF921F93F8
:10591000CF93DF93EC016B01142F8D8D9E8D892B1E
:1059200009F447C089A10E94C3198D8D9E8DDC01A9
:10593000ED91FC910190F081E02D60E019957601E8
:10594000CC24C394D12C11508D8D9E8D1F3F41F1DD
:10595000B0E2CB16D10490F00E94612C89A10E9484
:10596000C3198D8D9E8DDC01ED91FC910190F0812C
:10597000E02D60E01995CC24C394D12C8D8D9E8DA3
:10598000F7016491DC01ED91FC910190F081E02D33
:105990001995BFEFCB1ADB0AEFEFEE1AFE0AD3CF51
:1059A000DF91CF911F91FF90EF90DF90CF900C94FB
:1059B000612CEDA5FEA590818BA98095892380831C
:1059C0007B01115070F1F70184912B8D3C8D232BBD
:1059D00031F00E94B521FFEFEF1AFF0AF2CF28E065
:1059E00030E040E8E9A5FAA599A9582F5423A9F079
:1059F0005081952B9083EBA5FCA590815AA9952BFE
:105A00009083EBA5FCA550819AA99095952390834E
:105A100046952150310931F7DECF5081909595237D
:105A2000E9CFDF91CF911F91FF90EF90DF90CF9062
:105A300008951F93CF93DF93EC018D8D9E8D892B5D
:105A4000F9F0162F89A10E94C3198D8D9E8DDC015E
:105A5000ED91FC910190F081E02D60E019958D8D24
:105A60009E8DDC01ED91FC910190F081E02D612F84
:105A700019958D8D9E8DDF91CF911F910C94612C86
:105A8000ADA5BEA59C918BA9809589238C938B8D08
:105A90009C8D892B31F0862FDF91CF911F910C9433
:105AA000B52128E030E080E8A9A5BAA599A9462F3C
:105AB0004823C1F04C91942B9C93ABA5BCA59C9121
:105AC0004AA9942B9C93ABA5BCA54C919AA99095FF
:105AD00094239C9386952150310931F7DF91CF9122
